{
  "_format": "hh-sol-artifact-1",
  "contractName": "SubaruStakingToken",
  "sourceName": "contracts/StakingToken.sol",
  "abi": [
    {
      "inputs": [],
      "stateMutability": "nonpayable",
      "type": "constructor"
    },
    {
      "anonymous": false,
      "inputs": [
        {
          "indexed": true,
          "internalType": "address",
          "name": "owner",
          "type": "address"
        },
        {
          "indexed": true,
          "internalType": "address",
          "name": "spender",
          "type": "address"
        },
        {
          "indexed": false,
          "internalType": "uint256",
          "name": "value",
          "type": "uint256"
        }
      ],
      "name": "Approval",
      "type": "event"
    },
    {
      "anonymous": false,
      "inputs": [
        {
          "indexed": false,
          "internalType": "address",
          "name": "_buyer",
          "type": "address"
        },
        {
          "indexed": false,
          "internalType": "uint256",
          "name": "_amountOfETH",
          "type": "uint256"
        },
        {
          "indexed": false,
          "internalType": "uint256",
          "name": "_amountOfToken",
          "type": "uint256"
        }
      ],
      "name": "Bought",
      "type": "event"
    },
    {
      "anonymous": false,
      "inputs": [
        {
          "indexed": true,
          "internalType": "address",
          "name": "previousOwner",
          "type": "address"
        },
        {
          "indexed": true,
          "internalType": "address",
          "name": "newOwner",
          "type": "address"
        }
      ],
      "name": "OwnershipTransferred",
      "type": "event"
    },
    {
      "anonymous": false,
      "inputs": [
        {
          "indexed": true,
          "internalType": "address",
          "name": "from",
          "type": "address"
        },
        {
          "indexed": true,
          "internalType": "address",
          "name": "to",
          "type": "address"
        },
        {
          "indexed": false,
          "internalType": "uint256",
          "name": "value",
          "type": "uint256"
        }
      ],
      "name": "Transfer",
      "type": "event"
    },
    {
      "inputs": [
        {
          "internalType": "address",
          "name": "_stakeholder",
          "type": "address"
        }
      ],
      "name": "addStakeholder",
      "outputs": [],
      "stateMutability": "nonpayable",
      "type": "function"
    },
    {
      "inputs": [
        {
          "internalType": "address",
          "name": "owner",
          "type": "address"
        },
        {
          "internalType": "address",
          "name": "spender",
          "type": "address"
        }
      ],
      "name": "allowance",
      "outputs": [
        {
          "internalType": "uint256",
          "name": "",
          "type": "uint256"
        }
      ],
      "stateMutability": "view",
      "type": "function"
    },
    {
      "inputs": [
        {
          "internalType": "address",
          "name": "spender",
          "type": "address"
        },
        {
          "internalType": "uint256",
          "name": "amount",
          "type": "uint256"
        }
      ],
      "name": "approve",
      "outputs": [
        {
          "internalType": "bool",
          "name": "",
          "type": "bool"
        }
      ],
      "stateMutability": "nonpayable",
      "type": "function"
    },
    {
      "inputs": [
        {
          "internalType": "address",
          "name": "account",
          "type": "address"
        }
      ],
      "name": "balanceOf",
      "outputs": [
        {
          "internalType": "uint256",
          "name": "",
          "type": "uint256"
        }
      ],
      "stateMutability": "view",
      "type": "function"
    },
    {
      "inputs": [],
      "name": "buy",
      "outputs": [],
      "stateMutability": "payable",
      "type": "function"
    },
    {
      "inputs": [
        {
          "internalType": "address",
          "name": "_stakeholder",
          "type": "address"
        }
      ],
      "name": "calculateRewards",
      "outputs": [
        {
          "internalType": "uint256",
          "name": "",
          "type": "uint256"
        }
      ],
      "stateMutability": "view",
      "type": "function"
    },
    {
      "inputs": [],
      "name": "claimReward",
      "outputs": [],
      "stateMutability": "nonpayable",
      "type": "function"
    },
    {
      "inputs": [
        {
          "internalType": "uint256",
          "name": "_stake",
          "type": "uint256"
        }
      ],
      "name": "createStake",
      "outputs": [
        {
          "internalType": "bool",
          "name": "",
          "type": "bool"
        }
      ],
      "stateMutability": "nonpayable",
      "type": "function"
    },
    {
      "inputs": [],
      "name": "decimals",
      "outputs": [
        {
          "internalType": "uint8",
          "name": "",
          "type": "uint8"
        }
      ],
      "stateMutability": "view",
      "type": "function"
    },
    {
      "inputs": [
        {
          "internalType": "address",
          "name": "spender",
          "type": "address"
        },
        {
          "internalType": "uint256",
          "name": "subtractedValue",
          "type": "uint256"
        }
      ],
      "name": "decreaseAllowance",
      "outputs": [
        {
          "internalType": "bool",
          "name": "",
          "type": "bool"
        }
      ],
      "stateMutability": "nonpayable",
      "type": "function"
    },
    {
      "inputs": [
        {
          "internalType": "address",
          "name": "spender",
          "type": "address"
        },
        {
          "internalType": "uint256",
          "name": "addedValue",
          "type": "uint256"
        }
      ],
      "name": "increaseAllowance",
      "outputs": [
        {
          "internalType": "bool",
          "name": "",
          "type": "bool"
        }
      ],
      "stateMutability": "nonpayable",
      "type": "function"
    },
    {
      "inputs": [
        {
          "internalType": "address",
          "name": "_address",
          "type": "address"
        }
      ],
      "name": "isStakeholder",
      "outputs": [
        {
          "internalType": "bool",
          "name": "",
          "type": "bool"
        },
        {
          "internalType": "uint256",
          "name": "",
          "type": "uint256"
        }
      ],
      "stateMutability": "view",
      "type": "function"
    },
    {
      "inputs": [],
      "name": "name",
      "outputs": [
        {
          "internalType": "string",
          "name": "",
          "type": "string"
        }
      ],
      "stateMutability": "view",
      "type": "function"
    },
    {
      "inputs": [],
      "name": "owner",
      "outputs": [
        {
          "internalType": "address",
          "name": "",
          "type": "address"
        }
      ],
      "stateMutability": "view",
      "type": "function"
    },
    {
      "inputs": [
        {
          "internalType": "uint256",
          "name": "_stake",
          "type": "uint256"
        }
      ],
      "name": "removeStake",
      "outputs": [],
      "stateMutability": "nonpayable",
      "type": "function"
    },
    {
      "inputs": [
        {
          "internalType": "address",
          "name": "_stakeholder",
          "type": "address"
        }
      ],
      "name": "removeStakeholder",
      "outputs": [],
      "stateMutability": "nonpayable",
      "type": "function"
    },
    {
      "inputs": [],
      "name": "renounceOwnership",
      "outputs": [],
      "stateMutability": "nonpayable",
      "type": "function"
    },
    {
      "inputs": [
        {
          "internalType": "address",
          "name": "_stakeholder",
          "type": "address"
        }
      ],
      "name": "rewardOf",
      "outputs": [
        {
          "internalType": "uint256",
          "name": "",
          "type": "uint256"
        }
      ],
      "stateMutability": "view",
      "type": "function"
    },
    {
      "inputs": [
        {
          "internalType": "address",
          "name": "_stakeholder",
          "type": "address"
        }
      ],
      "name": "stakeOf",
      "outputs": [
        {
          "internalType": "uint256",
          "name": "",
          "type": "uint256"
        }
      ],
      "stateMutability": "view",
      "type": "function"
    },
    {
      "inputs": [],
      "name": "symbol",
      "outputs": [
        {
          "internalType": "string",
          "name": "",
          "type": "string"
        }
      ],
      "stateMutability": "view",
      "type": "function"
    },
    {
      "inputs": [],
      "name": "tokensPerEth",
      "outputs": [
        {
          "internalType": "uint256",
          "name": "",
          "type": "uint256"
        }
      ],
      "stateMutability": "view",
      "type": "function"
    },
    {
      "inputs": [],
      "name": "totalRewards",
      "outputs": [
        {
          "internalType": "uint256",
          "name": "",
          "type": "uint256"
        }
      ],
      "stateMutability": "view",
      "type": "function"
    },
    {
      "inputs": [],
      "name": "totalStakes",
      "outputs": [
        {
          "internalType": "uint256",
          "name": "",
          "type": "uint256"
        }
      ],
      "stateMutability": "view",
      "type": "function"
    },
    {
      "inputs": [],
      "name": "totalSupply",
      "outputs": [
        {
          "internalType": "uint256",
          "name": "",
          "type": "uint256"
        }
      ],
      "stateMutability": "view",
      "type": "function"
    },
    {
      "inputs": [
        {
          "internalType": "address",
          "name": "to",
          "type": "address"
        },
        {
          "internalType": "uint256",
          "name": "amount",
          "type": "uint256"
        }
      ],
      "name": "transfer",
      "outputs": [
        {
          "internalType": "bool",
          "name": "",
          "type": "bool"
        }
      ],
      "stateMutability": "nonpayable",
      "type": "function"
    },
    {
      "inputs": [
        {
          "internalType": "address",
          "name": "from",
          "type": "address"
        },
        {
          "internalType": "address",
          "name": "to",
          "type": "address"
        },
        {
          "internalType": "uint256",
          "name": "amount",
          "type": "uint256"
        }
      ],
      "name": "transferFrom",
      "outputs": [
        {
          "internalType": "bool",
          "name": "",
          "type": "bool"
        }
      ],
      "stateMutability": "nonpayable",
      "type": "function"
    },
    {
      "inputs": [
        {
          "internalType": "address",
          "name": "newOwner",
          "type": "address"
        }
      ],
      "name": "transferOwnership",
      "outputs": [],
      "stateMutability": "nonpayable",
      "type": "function"
    },
    {
      "inputs": [],
      "name": "withdrawReward",
      "outputs": [],
      "stateMutability": "nonpayable",
      "type": "function"
    }
  ],
  "bytecode": "0x6080604052620000146200019660201b60201c565b600660006101000a81548173ffffffffffffffffffffffffffffffffffffffff021916908373ffffffffffffffffffffffffffffffffffffffff1602179055506103e8600755600a6008553480156200006c57600080fd5b506040518060400160405280600681526020017f53756261727500000000000000000000000000000000000000000000000000008152506040518060400160405280600381526020017f53425500000000000000000000000000000000000000000000000000000000008152508160039080519060200190620000f1929190620003f0565b5080600490805190602001906200010a929190620003f0565b5050506200012d620001216200019660201b60201c565b6200019e60201b60201c565b62000190600660009054906101000a900473ffffffffffffffffffffffffffffffffffffffff16620001646200026460201b60201c565b60ff16600a620001759190620005e0565b6007546200018491906200071d565b6200026d60201b60201c565b62000852565b600033905090565b6000600560009054906101000a900473ffffffffffffffffffffffffffffffffffffffff16905081600560006101000a81548173ffffffffffffffffffffffffffffffffffffffff021916908373ffffffffffffffffffffffffffffffffffffffff1602179055508173ffffffffffffffffffffffffffffffffffffffff168173ffffffffffffffffffffffffffffffffffffffff167f8be0079c531659141344cd1fd0a4f28419497f9722a3daafe3b4186f6b6457e060405160405180910390a35050565b60006012905090565b600073ffffffffffffffffffffffffffffffffffffffff168273ffffffffffffffffffffffffffffffffffffffff161415620002e0576040517f08c379a0000000000000000000000000000000000000000000000000000000008152600401620002d790620004d8565b60405180910390fd5b620002f460008383620003e660201b60201c565b806002600082825462000308919062000528565b92505081905550806000808473ffffffffffffffffffffffffffffffffffffffff1673ffffffffffffffffffffffffffffffffffffffff16815260200190815260200160002060008282546200035f919062000528565b925050819055508173ffffffffffffffffffffffffffffffffffffffff16600073ffffffffffffffffffffffffffffffffffffffff167fddf252ad1be2c89b69c2b068fc378daa952ba7f163c4a11628f55a4df523b3ef83604051620003c69190620004fa565b60405180910390a3620003e260008383620003eb60201b60201c565b5050565b505050565b505050565b828054620003fe9062000788565b90600052602060002090601f0160209004810192826200042257600085556200046e565b82601f106200043d57805160ff19168380011785556200046e565b828001600101855582156200046e579182015b828111156200046d57825182559160200191906001019062000450565b5b5090506200047d919062000481565b5090565b5b808211156200049c57600081600090555060010162000482565b5090565b6000620004af601f8362000517565b9150620004bc8262000829565b602082019050919050565b620004d2816200077e565b82525050565b60006020820190508181036000830152620004f381620004a0565b9050919050565b6000602082019050620005116000830184620004c7565b92915050565b600082825260208201905092915050565b600062000535826200077e565b915062000542836200077e565b9250827fffffffffffffffffffffffffffffffffffffffffffffffffffffffffffffffff038211156200057a5762000579620007be565b5b828201905092915050565b6000808291508390505b6001851115620005d757808604811115620005af57620005ae620007be565b5b6001851615620005bf5780820291505b8081029050620005cf856200081c565b94506200058f565b94509492505050565b6000620005ed826200077e565b9150620005fa836200077e565b9250620006297fffffffffffffffffffffffffffffffffffffffffffffffffffffffffffffffff848462000631565b905092915050565b60008262000643576001905062000716565b8162000653576000905062000716565b81600181146200066c57600281146200067757620006ad565b600191505062000716565b60ff8411156200068c576200068b620007be565b5b8360020a915084821115620006a657620006a5620007be565b5b5062000716565b5060208310610133831016604e8410600b8410161715620006e75782820a905083811115620006e157620006e0620007be565b5b62000716565b620006f6848484600162000585565b9250905081840481111562000710576200070f620007be565b5b81810290505b9392505050565b60006200072a826200077e565b915062000737836200077e565b9250817fffffffffffffffffffffffffffffffffffffffffffffffffffffffffffffffff0483118215151615620007735762000772620007be565b5b828202905092915050565b6000819050919050565b60006002820490506001821680620007a157607f821691505b60208210811415620007b857620007b7620007ed565b5b50919050565b7f4e487b7100000000000000000000000000000000000000000000000000000000600052601160045260246000fd5b7f4e487b7100000000000000000000000000000000000000000000000000000000600052602260045260246000fd5b60008160011c9050919050565b7f45524332303a206d696e7420746f20746865207a65726f206164647265737300600082015250565b612f4780620008626000396000f3fe6080604052600436106101b75760003560e01c8063939624ab116100ec578063bf9befb11161008a578063dd62ed3e11610064578063dd62ed3e14610617578063e5c42fd114610654578063ef037b901461067d578063f2fde38b146106bb576101b7565b8063bf9befb1146105aa578063c885bc58146105d5578063cbdd69b5146105ec576101b7565b8063a6f2ae3a116100c6578063a6f2ae3a14610523578063a9059cbb1461052d578063b88a802f1461056a578063bcb0c2d714610581576101b7565b8063939624ab1461049257806395d89b41146104bb578063a457c2d7146104e6576101b7565b8063313ce5671161015957806364ab86751161013357806364ab8675146103d657806370a0823114610413578063715018a6146104505780638da5cb5b14610467576101b7565b8063313ce56714610331578063395093511461035c5780634262336014610399576101b7565b806318160ddd1161019557806318160ddd1461024f5780631bf6ddae1461027a5780631d62ebd9146102b757806323b872dd146102f4576101b7565b806306fdde03146101bc578063095ea7b3146101e75780630e15561a14610224575b600080fd5b3480156101c857600080fd5b506101d16106e4565b6040516101de9190612631565b60405180910390f35b3480156101f357600080fd5b5061020e6004803603810190610209919061229f565b610776565b60405161021b91906125ed565b60405180910390f35b34801561023057600080fd5b50610239610799565b6040516102469190612813565b60405180910390f35b34801561025b57600080fd5b50610264610883565b6040516102719190612813565b60405180910390f35b34801561028657600080fd5b506102a1600480360381019061029c91906122db565b61088d565b6040516102ae91906125ed565b60405180910390f35b3480156102c357600080fd5b506102de60048036038101906102d991906121eb565b6109db565b6040516102eb9190612813565b60405180910390f35b34801561030057600080fd5b5061031b60048036038101906103169190612250565b610a24565b60405161032891906125ed565b60405180910390f35b34801561033d57600080fd5b50610346610a53565b604051610353919061282e565b60405180910390f35b34801561036857600080fd5b50610383600480360381019061037e919061229f565b610a5c565b60405161039091906125ed565b60405180910390f35b3480156103a557600080fd5b506103c060048036038101906103bb91906121eb565b610b06565b6040516103cd9190612813565b60405180910390f35b3480156103e257600080fd5b506103fd60048036038101906103f891906121eb565b610b4f565b60405161040a9190612813565b60405180910390f35b34801561041f57600080fd5b5061043a600480360381019061043591906121eb565b610ba4565b6040516104479190612813565b60405180910390f35b34801561045c57600080fd5b50610465610bec565b005b34801561047357600080fd5b5061047c610c74565b604051610489919061259b565b60405180910390f35b34801561049e57600080fd5b506104b960048036038101906104b491906122db565b610c9e565b005b3480156104c757600080fd5b506104d0610d92565b6040516104dd9190612631565b60405180910390f35b3480156104f257600080fd5b5061050d6004803603810190610508919061229f565b610e24565b60405161051a91906125ed565b60405180910390f35b61052b610f0e565b005b34801561053957600080fd5b50610554600480360381019061054f919061229f565b6110d4565b60405161056191906125ed565b60405180910390f35b34801561057657600080fd5b5061057f6110f7565b005b34801561058d57600080fd5b506105a860048036038101906105a391906121eb565b6112df565b005b3480156105b657600080fd5b506105bf611460565b6040516105cc9190612813565b60405180910390f35b3480156105e157600080fd5b506105ea61153f565b005b3480156105f857600080fd5b506106016115d5565b60405161060e9190612813565b60405180910390f35b34801561062357600080fd5b5061063e60048036038101906106399190612214565b6115db565b60405161064b9190612813565b60405180910390f35b34801561066057600080fd5b5061067b600480360381019061067691906121eb565b611662565b005b34801561068957600080fd5b506106a4600480360381019061069f91906121eb565b6116dd565b6040516106b2929190612608565b60405180910390f35b3480156106c757600080fd5b506106e260048036038101906106dd91906121eb565b6117b6565b005b6060600380546106f390612a0d565b80601f016020809104026020016040519081016040528092919081815260200182805461071f90612a0d565b801561076c5780601f106107415761010080835404028352916020019161076c565b820191906000526020600020905b81548152906001019060200180831161074f57829003601f168201915b5050505050905090565b6000806107816118ae565b905061078e8185856118b6565b600191505092915050565b6000806000905060005b60098054905081101561087b57610866600c6000600984815481106107f1577f4e487b7100000000000000000000000000000000000000000000000000000000600052603260045260246000fd5b9060005260206000200160009054906101000a900473ffffffffffffffffffffffffffffffffffffffff1673ffffffffffffffffffffffffffffffffffffffff1673ffffffffffffffffffffffffffffffffffffffff1681526020019081526020016000205483611a8190919063ffffffff16565b9150808061087390612a3f565b9150506107a3565b508091505090565b6000600254905090565b60006108993383611a97565b6000600a60003373ffffffffffffffffffffffffffffffffffffffff1673ffffffffffffffffffffffffffffffffffffffff1681526020019081526020016000205414156108eb576108ea33611662565b5b61093d82600a60003373ffffffffffffffffffffffffffffffffffffffff1673ffffffffffffffffffffffffffffffffffffffff16815260200190815260200160002054611a8190919063ffffffff16565b600a60003373ffffffffffffffffffffffffffffffffffffffff1673ffffffffffffffffffffffffffffffffffffffff168152602001908152602001600020819055506203f4804261098f9190612870565b600b60003373ffffffffffffffffffffffffffffffffffffffff1673ffffffffffffffffffffffffffffffffffffffff1681526020019081526020016000208190555060019050919050565b6000600c60008373ffffffffffffffffffffffffffffffffffffffff1673ffffffffffffffffffffffffffffffffffffffff168152602001908152602001600020549050919050565b600080610a2f6118ae565b9050610a3c858285611c6e565b610a47858585611cfa565b60019150509392505050565b60006012905090565b600080610a676118ae565b9050610afb818585600160008673ffffffffffffffffffffffffffffffffffffffff1673ffffffffffffffffffffffffffffffffffffffff16815260200190815260200160002060008973ffffffffffffffffffffffffffffffffffffffff1673ffffffffffffffffffffffffffffffffffffffff16815260200190815260200160002054610af69190612870565b6118b6565b600191505092915050565b6000600a60008373ffffffffffffffffffffffffffffffffffffffff1673ffffffffffffffffffffffffffffffffffffffff168152602001908152602001600020549050919050565b60006064600a60008473ffffffffffffffffffffffffffffffffffffffff1673ffffffffffffffffffffffffffffffffffffffff16815260200190815260200160002054610b9d91906128c6565b9050919050565b60008060008373ffffffffffffffffffffffffffffffffffffffff1673ffffffffffffffffffffffffffffffffffffffff168152602001908152602001600020549050919050565b610bf46118ae565b73ffffffffffffffffffffffffffffffffffffffff16610c12610c74565b73ffffffffffffffffffffffffffffffffffffffff1614610c68576040517f08c379a0000000000000000000000000000000000000000000000000000000008152600401610c5f90612733565b60405180910390fd5b610c726000611f7b565b565b6000600560009054906101000a900473ffffffffffffffffffffffffffffffffffffffff16905090565b610cf081600a60003373ffffffffffffffffffffffffffffffffffffffff1673ffffffffffffffffffffffffffffffffffffffff1681526020019081526020016000205461204190919063ffffffff16565b600a60003373ffffffffffffffffffffffffffffffffffffffff1673ffffffffffffffffffffffffffffffffffffffff168152602001908152602001600020819055506000600a60003373ffffffffffffffffffffffffffffffffffffffff1673ffffffffffffffffffffffffffffffffffffffff168152602001908152602001600020541415610d8557610d84336112df565b5b610d8f3382612057565b50565b606060048054610da190612a0d565b80601f0160208091040260200160405190810160405280929190818152602001828054610dcd90612a0d565b8015610e1a5780601f10610def57610100808354040283529160200191610e1a565b820191906000526020600020905b815481529060010190602001808311610dfd57829003601f168201915b5050505050905090565b600080610e2f6118ae565b90506000600160008373ffffffffffffffffffffffffffffffffffffffff1673ffffffffffffffffffffffffffffffffffffffff16815260200190815260200160002060008673ffffffffffffffffffffffffffffffffffffffff1673ffffffffffffffffffffffffffffffffffffffff16815260200190815260200160002054905083811015610ef5576040517f08c379a0000000000000000000000000000000000000000000000000000000008152600401610eec906127d3565b60405180910390fd5b610f0282868684036118b6565b60019250505092915050565b60003411610f51576040517f08c379a0000000000000000000000000000000000000000000000000000000008152600401610f4890612713565b60405180910390fd5b600060085434610f6191906128f7565b905080610f8f600660009054906101000a900473ffffffffffffffffffffffffffffffffffffffff16610ba4565b1015610f9a57600080fd5b610fc7600660009054906101000a900473ffffffffffffffffffffffffffffffffffffffff163383611cfa565b7fa9a40dec7a304e5915d11358b968c1e8d365992abf20f82285d1df1b30c8e24c333483604051610ffa939291906125b6565b60405180910390a16000600660009054906101000a900473ffffffffffffffffffffffffffffffffffffffff1673ffffffffffffffffffffffffffffffffffffffff163460405161104a90612586565b60006040518083038185875af1925050503d8060008114611087576040519150601f19603f3d011682016040523d82523d6000602084013e61108c565b606091505b50509050806110d0576040517f08c379a00000000000000000000000000000000000000000000000000000000081526004016110c7906127b3565b60405180910390fd5b5050565b6000806110df6118ae565b90506110ec818585611cfa565b600191505092915050565b600080611103336116dd565b5090508061111057600080fd5b42600b60003373ffffffffffffffffffffffffffffffffffffffff1673ffffffffffffffffffffffffffffffffffffffff168152602001908152602001600020541080156111aa57506202a300600b60003373ffffffffffffffffffffffffffffffffffffffff1673ffffffffffffffffffffffffffffffffffffffff168152602001908152602001600020546111a79190612870565b42105b15611249576111b833610b4f565b915081600c60003373ffffffffffffffffffffffffffffffffffffffff1673ffffffffffffffffffffffffffffffffffffffff168152602001908152602001600020546112059190612870565b600c60003373ffffffffffffffffffffffffffffffffffffffff1673ffffffffffffffffffffffffffffffffffffffff168152602001908152602001600020819055505b6000915081600c60003373ffffffffffffffffffffffffffffffffffffffff1673ffffffffffffffffffffffffffffffffffffffff168152602001908152602001600020546112989190612870565b600c60003373ffffffffffffffffffffffffffffffffffffffff1673ffffffffffffffffffffffffffffffffffffffff168152602001908152602001600020819055505050565b6000806112eb836116dd565b91509150811561145b57600960016009805490506113099190612951565b81548110611340577f4e487b7100000000000000000000000000000000000000000000000000000000600052603260045260246000fd5b9060005260206000200160009054906101000a900473ffffffffffffffffffffffffffffffffffffffff16600982815481106113a5577f4e487b7100000000000000000000000000000000000000000000000000000000600052603260045260246000fd5b9060005260206000200160006101000a81548173ffffffffffffffffffffffffffffffffffffffff021916908373ffffffffffffffffffffffffffffffffffffffff1602179055506009805480611425577f4e487b7100000000000000000000000000000000000000000000000000000000600052603160045260246000fd5b6001900381819060005260206000200160006101000a81549073ffffffffffffffffffffffffffffffffffffffff021916905590555b505050565b60008060005b60098054905081101561153757600a6000600983815481106114b1577f4e487b7100000000000000000000000000000000000000000000000000000000600052603260045260246000fd5b9060005260206000200160009054906101000a900473ffffffffffffffffffffffffffffffffffffffff1673ffffffffffffffffffffffffffffffffffffffff1673ffffffffffffffffffffffffffffffffffffffff16815260200190815260200160002054826115229190612870565b9150808061152f90612a3f565b915050611466565b508091505090565b6000600c60003373ffffffffffffffffffffffffffffffffffffffff1673ffffffffffffffffffffffffffffffffffffffff1681526020019081526020016000205490506000600c60003373ffffffffffffffffffffffffffffffffffffffff1673ffffffffffffffffffffffffffffffffffffffff168152602001908152602001600020819055506115d23382612057565b50565b60085481565b6000600160008473ffffffffffffffffffffffffffffffffffffffff1673ffffffffffffffffffffffffffffffffffffffff16815260200190815260200160002060008373ffffffffffffffffffffffffffffffffffffffff1673ffffffffffffffffffffffffffffffffffffffff16815260200190815260200160002054905092915050565b600061166d826116dd565b509050806116d9576009829080600181540180825580915050600190039060005260206000200160009091909190916101000a81548173ffffffffffffffffffffffffffffffffffffffff021916908373ffffffffffffffffffffffffffffffffffffffff1602179055505b5050565b60008060005b6009805490508110156117a8576009818154811061172a577f4e487b7100000000000000000000000000000000000000000000000000000000600052603260045260246000fd5b9060005260206000200160009054906101000a900473ffffffffffffffffffffffffffffffffffffffff1673ffffffffffffffffffffffffffffffffffffffff168473ffffffffffffffffffffffffffffffffffffffff1614156117955760018192509250506117b1565b80806117a090612a3f565b9150506116e3565b50600080915091505b915091565b6117be6118ae565b73ffffffffffffffffffffffffffffffffffffffff166117dc610c74565b73ffffffffffffffffffffffffffffffffffffffff1614611832576040517f08c379a000000000000000000000000000000000000000000000000000000000815260040161182990612733565b60405180910390fd5b600073ffffffffffffffffffffffffffffffffffffffff168173ffffffffffffffffffffffffffffffffffffffff1614156118a2576040517f08c379a000000000000000000000000000000000000000000000000000000000815260040161189990612693565b60405180910390fd5b6118ab81611f7b565b50565b600033905090565b600073ffffffffffffffffffffffffffffffffffffffff168373ffffffffffffffffffffffffffffffffffffffff161415611926576040517f08c379a000000000000000000000000000000000000000000000000000000000815260040161191d90612793565b60405180910390fd5b600073ffffffffffffffffffffffffffffffffffffffff168273ffffffffffffffffffffffffffffffffffffffff161415611996576040517f08c379a000000000000000000000000000000000000000000000000000000000815260040161198d906126b3565b60405180910390fd5b80600160008573ffffffffffffffffffffffffffffffffffffffff1673ffffffffffffffffffffffffffffffffffffffff16815260200190815260200160002060008473ffffffffffffffffffffffffffffffffffffffff1673ffffffffffffffffffffffffffffffffffffffff168152602001908152602001600020819055508173ffffffffffffffffffffffffffffffffffffffff168373ffffffffffffffffffffffffffffffffffffffff167f8c5be1e5ebec7d5bd14f71427d1e84f3dd0314c0f7b2291e5b200ac8c7c3b92583604051611a749190612813565b60405180910390a3505050565b60008183611a8f9190612870565b905092915050565b600073ffffffffffffffffffffffffffffffffffffffff168273ffffffffffffffffffffffffffffffffffffffff161415611b07576040517f08c379a0000000000000000000000000000000000000000000000000000000008152600401611afe90612753565b60405180910390fd5b611b13826000836121b7565b60008060008473ffffffffffffffffffffffffffffffffffffffff1673ffffffffffffffffffffffffffffffffffffffff16815260200190815260200160002054905081811015611b99576040517f08c379a0000000000000000000000000000000000000000000000000000000008152600401611b9090612673565b60405180910390fd5b8181036000808573ffffffffffffffffffffffffffffffffffffffff1673ffffffffffffffffffffffffffffffffffffffff168152602001908152602001600020819055508160026000828254611bf09190612951565b92505081905550600073ffffffffffffffffffffffffffffffffffffffff168373ffffffffffffffffffffffffffffffffffffffff167fddf252ad1be2c89b69c2b068fc378daa952ba7f163c4a11628f55a4df523b3ef84604051611c559190612813565b60405180910390a3611c69836000846121bc565b505050565b6000611c7a84846115db565b90507fffffffffffffffffffffffffffffffffffffffffffffffffffffffffffffffff8114611cf45781811015611ce6576040517f08c379a0000000000000000000000000000000000000000000000000000000008152600401611cdd906126d3565b60405180910390fd5b611cf384848484036118b6565b5b50505050565b600073ffffffffffffffffffffffffffffffffffffffff168373ffffffffffffffffffffffffffffffffffffffff161415611d6a576040517f08c379a0000000000000000000000000000000000000000000000000000000008152600401611d6190612773565b60405180910390fd5b600073ffffffffffffffffffffffffffffffffffffffff168273ffffffffffffffffffffffffffffffffffffffff161415611dda576040517f08c379a0000000000000000000000000000000000000000000000000000000008152600401611dd190612653565b60405180910390fd5b611de58383836121b7565b60008060008573ffffffffffffffffffffffffffffffffffffffff1673ffffffffffffffffffffffffffffffffffffffff16815260200190815260200160002054905081811015611e6b576040517f08c379a0000000000000000000000000000000000000000000000000000000008152600401611e62906126f3565b60405180910390fd5b8181036000808673ffffffffffffffffffffffffffffffffffffffff1673ffffffffffffffffffffffffffffffffffffffff16815260200190815260200160002081905550816000808573ffffffffffffffffffffffffffffffffffffffff1673ffffffffffffffffffffffffffffffffffffffff1681526020019081526020016000206000828254611efe9190612870565b925050819055508273ffffffffffffffffffffffffffffffffffffffff168473ffffffffffffffffffffffffffffffffffffffff167fddf252ad1be2c89b69c2b068fc378daa952ba7f163c4a11628f55a4df523b3ef84604051611f629190612813565b60405180910390a3611f758484846121bc565b50505050565b6000600560009054906101000a900473ffffffffffffffffffffffffffffffffffffffff16905081600560006101000a81548173ffffffffffffffffffffffffffffffffffffffff021916908373ffffffffffffffffffffffffffffffffffffffff1602179055508173ffffffffffffffffffffffffffffffffffffffff168173ffffffffffffffffffffffffffffffffffffffff167f8be0079c531659141344cd1fd0a4f28419497f9722a3daafe3b4186f6b6457e060405160405180910390a35050565b6000818361204f9190612951565b905092915050565b600073ffffffffffffffffffffffffffffffffffffffff168273ffffffffffffffffffffffffffffffffffffffff1614156120c7576040517f08c379a00000000000000000000000000000000000000000000000000000000081526004016120be906127f3565b60405180910390fd5b6120d3600083836121b7565b80600260008282546120e59190612870565b92505081905550806000808473ffffffffffffffffffffffffffffffffffffffff1673ffffffffffffffffffffffffffffffffffffffff168152602001908152602001600020600082825461213a9190612870565b925050819055508173ffffffffffffffffffffffffffffffffffffffff16600073ffffffffffffffffffffffffffffffffffffffff167fddf252ad1be2c89b69c2b068fc378daa952ba7f163c4a11628f55a4df523b3ef8360405161219f9190612813565b60405180910390a36121b3600083836121bc565b5050565b505050565b505050565b6000813590506121d081612ee3565b92915050565b6000813590506121e581612efa565b92915050565b6000602082840312156121fd57600080fd5b600061220b848285016121c1565b91505092915050565b6000806040838503121561222757600080fd5b6000612235858286016121c1565b9250506020612246858286016121c1565b9150509250929050565b60008060006060848603121561226557600080fd5b6000612273868287016121c1565b9350506020612284868287016121c1565b9250506040612295868287016121d6565b9150509250925092565b600080604083850312156122b257600080fd5b60006122c0858286016121c1565b92505060206122d1858286016121d6565b9150509250929050565b6000602082840312156122ed57600080fd5b60006122fb848285016121d6565b91505092915050565b61230d81612985565b82525050565b61231c81612997565b82525050565b600061232d82612849565b612337818561285f565b93506123478185602086016129da565b61235081612b15565b840191505092915050565b600061236860238361285f565b915061237382612b26565b604082019050919050565b600061238b60228361285f565b915061239682612b75565b604082019050919050565b60006123ae60268361285f565b91506123b982612bc4565b604082019050919050565b60006123d160228361285f565b91506123dc82612c13565b604082019050919050565b60006123f4601d8361285f565b91506123ff82612c62565b602082019050919050565b600061241760268361285f565b915061242282612c8b565b604082019050919050565b600061243a601b8361285f565b915061244582612cda565b602082019050919050565b600061245d60208361285f565b915061246882612d03565b602082019050919050565b600061248060218361285f565b915061248b82612d2c565b604082019050919050565b60006124a360258361285f565b91506124ae82612d7b565b604082019050919050565b60006124c6600083612854565b91506124d182612dca565b600082019050919050565b60006124e960248361285f565b91506124f482612dcd565b604082019050919050565b600061250c60238361285f565b915061251782612e1c565b604082019050919050565b600061252f60258361285f565b915061253a82612e6b565b604082019050919050565b6000612552601f8361285f565b915061255d82612eba565b602082019050919050565b612571816129c3565b82525050565b612580816129cd565b82525050565b6000612591826124b9565b9150819050919050565b60006020820190506125b06000830184612304565b92915050565b60006060820190506125cb6000830186612304565b6125d86020830185612568565b6125e56040830184612568565b949350505050565b60006020820190506126026000830184612313565b92915050565b600060408201905061261d6000830185612313565b61262a6020830184612568565b9392505050565b6000602082019050818103600083015261264b8184612322565b905092915050565b6000602082019050818103600083015261266c8161235b565b9050919050565b6000602082019050818103600083015261268c8161237e565b9050919050565b600060208201905081810360008301526126ac816123a1565b9050919050565b600060208201905081810360008301526126cc816123c4565b9050919050565b600060208201905081810360008301526126ec816123e7565b9050919050565b6000602082019050818103600083015261270c8161240a565b9050919050565b6000602082019050818103600083015261272c8161242d565b9050919050565b6000602082019050818103600083015261274c81612450565b9050919050565b6000602082019050818103600083015261276c81612473565b9050919050565b6000602082019050818103600083015261278c81612496565b9050919050565b600060208201905081810360008301526127ac816124dc565b9050919050565b600060208201905081810360008301526127cc816124ff565b9050919050565b600060208201905081810360008301526127ec81612522565b9050919050565b6000602082019050818103600083015261280c81612545565b9050919050565b60006020820190506128286000830184612568565b92915050565b60006020820190506128436000830184612577565b92915050565b600081519050919050565b600081905092915050565b600082825260208201905092915050565b600061287b826129c3565b9150612886836129c3565b9250827fffffffffffffffffffffffffffffffffffffffffffffffffffffffffffffffff038211156128bb576128ba612a88565b5b828201905092915050565b60006128d1826129c3565b91506128dc836129c3565b9250826128ec576128eb612ab7565b5b828204905092915050565b6000612902826129c3565b915061290d836129c3565b9250817fffffffffffffffffffffffffffffffffffffffffffffffffffffffffffffffff048311821515161561294657612945612a88565b5b828202905092915050565b600061295c826129c3565b9150612967836129c3565b92508282101561297a57612979612a88565b5b828203905092915050565b6000612990826129a3565b9050919050565b60008115159050919050565b600073ffffffffffffffffffffffffffffffffffffffff82169050919050565b6000819050919050565b600060ff82169050919050565b60005b838110156129f85780820151818401526020810190506129dd565b83811115612a07576000848401525b50505050565b60006002820490506001821680612a2557607f821691505b60208210811415612a3957612a38612ae6565b5b50919050565b6000612a4a826129c3565b91507fffffffffffffffffffffffffffffffffffffffffffffffffffffffffffffffff821415612a7d57612a7c612a88565b5b600182019050919050565b7f4e487b7100000000000000000000000000000000000000000000000000000000600052601160045260246000fd5b7f4e487b7100000000000000000000000000000000000000000000000000000000600052601260045260246000fd5b7f4e487b7100000000000000000000000000000000000000000000000000000000600052602260045260246000fd5b6000601f19601f8301169050919050565b7f45524332303a207472616e7366657220746f20746865207a65726f206164647260008201527f6573730000000000000000000000000000000000000000000000000000000000602082015250565b7f45524332303a206275726e20616d6f756e7420657863656564732062616c616e60008201527f6365000000000000000000000000000000000000000000000000000000000000602082015250565b7f4f776e61626c653a206e6577206f776e657220697320746865207a65726f206160008201527f6464726573730000000000000000000000000000000000000000000000000000602082015250565b7f45524332303a20617070726f766520746f20746865207a65726f20616464726560008201527f7373000000000000000000000000000000000000000000000000000000000000602082015250565b7f45524332303a20696e73756666696369656e7420616c6c6f77616e6365000000600082015250565b7f45524332303a207472616e7366657220616d6f756e742065786365656473206260008201527f616c616e63650000000000000000000000000000000000000000000000000000602082015250565b7f596f75206e65656420746f2073656e6420736f6d652045746865720000000000600082015250565b7f4f776e61626c653a2063616c6c6572206973206e6f7420746865206f776e6572600082015250565b7f45524332303a206275726e2066726f6d20746865207a65726f2061646472657360008201527f7300000000000000000000000000000000000000000000000000000000000000602082015250565b7f45524332303a207472616e736665722066726f6d20746865207a65726f20616460008201527f6472657373000000000000000000000000000000000000000000000000000000602082015250565b50565b7f45524332303a20617070726f76652066726f6d20746865207a65726f2061646460008201527f7265737300000000000000000000000000000000000000000000000000000000602082015250565b7f6661696c656420746f2072656365697665204554482066726f6d20746865207560008201527f7365720000000000000000000000000000000000000000000000000000000000602082015250565b7f45524332303a2064656372656173656420616c6c6f77616e63652062656c6f7760008201527f207a65726f000000000000000000000000000000000000000000000000000000602082015250565b7f45524332303a206d696e7420746f20746865207a65726f206164647265737300600082015250565b612eec81612985565b8114612ef757600080fd5b50565b612f03816129c3565b8114612f0e57600080fd5b5056fea2646970667358221220baf43f66da11d8480e9a9137b1a7a1a2ab6114e995282a571a11fb67c7f1d9f164736f6c63430008040033",
  "linkReferences": {},
  "deployedLinkReferences": {}
}